:10046D004C4544BCECB2E2A3ACB0B4524553455438
:10047D00CDCBB3F6004441BCECB2E2A3ACB0B45268
:10048D0045534554CDCBB3F6004144BCECB2E2A389
:10049D00ACB0B45245534554CDCBB3F600BED8D510
:1004AD00F3BDA8C5CCBCECB2E2A3ACB0B45245537D
:1004BD004554CDCBB3F6002044533132423230BCDB
:1004CD00ECB2E2A3ACB0B45245534554CDCBB3F628
:1004DD000031363032D2BABEA7BCECB2E2A3ACD0FA
:1004ED00E8BDABD2BABEA7B2E5C9CFB2A2B5F7BDD2
:1004FD00DACFE0D3A6B5E7CEBBC6F7A3ACB0B45206
:10050D0045534554CDCBB3F600203132383634D275
:10051D00BABEA7BCECB2E2A3ACD0E8BDABD2BABEBA
:10052D00A7B2E5C9CFB2A2B5F7BDDACFE0D3A6B574
:10053D00E7CEBBC6F7A3ACB0B45245534554CDCBB3
:10054D00B3F6002041543234433032BCECB2E2A356
:10055D00ACB0B45245534554CDCBB3F600B5E3D54D
:10056D00F3BCECB2E2A3ACD0E8C8E7CFC2C1ACBDDE
:10057D00D3B6C5B0EECFDF3A000A0D092050332EA9
:10058D0030202D2D2D2D2D2D2D2D2D2D3E20534358
:10059D004B090909090909090909200A0D09205002
:1005AD00332E31202D2D2D2D2D2D2D2D2D2D3E206C
:1005BD0052434B090909090909090909200A0D09BD
:1005CD002050332E32202D2D2D2D2D2D2D2D2D2D39
:1005DD003E20534449000A0DB0B45245534554CD05
:1005ED00CBB3F6004453313243383837BCECB2E26A
:1005FD00A3ACD0E8BDD3C8EB31363032D2BABEA7EA
:10060D00B2A2C8E7CFC2C1ACBDD3B6C5B0EECFDF85
:10061D003A000D0A0920202020202050312E3420B0
:10062D002D2D2D2D2D2D2D2D2D2D3E2043530909F5
:10063D0009090909090909200D0A0920202020208E
:10064D002050312E35202D2D2D2D2D2D2D2D2D2DB7
:10065D003E204153090909090909090909200D0A13
:10066D000920202020202050312E36202D2D2D2DFB
:10067D002D2D2D2D2D2D3E20575209090909090922
:10068D00090909200D0A0920202020202050312E93
:10069D0037202D2D2D2D2D2D2D2D2D2D3E20524440
:1006AD00090909090909090909200D0A092050300C
:1006BD002E307E50302E37202D2D2D2D2D2D2D2DE4
:1006CD002D2D3E204144307E41443700B2BDBDF852
:1006DD00B5E7BBFABCECB2E2A3ACD0E8BDD3C8EB36
:1006ED00B2BDBDF8B5E7BBFAB2A2C8E7CFC2C1AC87
:1006FD00BDD3B6C5B0EECFDF3A000A0D09202020DC
:10070D0020202050332E33202D2D2D2D2D2D2D2D10
:10071D002D2D3E2020494F28BAECCDE2290909099B
:10072D00090909090909200A0D092050312E307EC9
:10073D0050312E33202D2D2D2D2D2D2D2D2D2D3EAA
:10074D002020494E417E494E4428B2BDBDF8B5E743
:10075D00BBFA2900D6B1C1F7B5E7BBFABCECB2E2E2
:10076D00A3ACD0E8BDD3C8EBD6B1C1F7B5E7BBFAA2
:10077D00B2A2C8E7CFC2C1ACBDD3B6C5B0EECFDF14
:10078D003A000A0D092050322E32202D2D2D2D2DFF
:10079D002D2D2D2D2D3E2020444328D6B1C1F7B54A
:1007AD00E7BBFA29090909090909090909200A0DEF
:1007BD00092050332E33202D2D2D2D2D2D2D2D2D6A
:1007CD002D3E2020494F28BAECCDE22900B6E6BBDC
:1007DD00FABCECB2E2A3ACD0E8BDD3C8EBB6E6BB35
:1007ED00FAB2A2C8E7CFC2C1ACBDD3B6C5B0EECF89
:1007FD00DF3A000A0D092050322E31202D2D2D2DDE
:10080D002D2D2D2D2D2D3E2020534528B6E6BBFA3E
:10081D0029090909090909090909200A0D092050A1
:10082D00332E33202D2D2D2D2D2D2D2D2D2D3E20E7
:10083D0020494F28BAECCDE22900BCCCB5E7C6F76C
:10084D00BCECB2E2A3ACD0E8C8E7CFC2C1ACBDD31B
:10085D00B6C5B0EECFDF3A000A0D092050322E306A
:10086D00202D2D2D2D2D2D2D2D2D2D3E2020525970
:10087D00494E28BCCCB5E7C6F7290909090909096C
:10088D00090909200A0D092050332E33202D2D2D55
:10089D002D2D2D2D2D2D2D3E2020494F28BAECCD5F
:0308AD00E229003D
:1017A100C2B2C2B67580FFD2B2D2B67590FFD2A5D1
:1017B100C2A57580FFD2A6D2A7C2A6C2A7C297C2F0
:0A17C100A0C2975390F075A8902283
:101CA000E4F53E1217A1121BB4121D6B120A168026
:011CB000FB38
:100A1600E53E1204470A4C1B0A4F310A5C320A694A
:100A2600330A76340A83350A90360A9D370AAA387D
:100A36000AB7390AD2610AEC620B06630B20640B13
:100A46003A6500000B55020B527E047F6D121B0C9B
:100A56001216A5020B527E047F82121B0C12177609
:100A6600020B527E047F96121B0C121270020B525E
:100A76007E047FAA121B0C1208B0020B527E047F62
:100A8600C4121B0C121C3F020B527E047FDE121B8B
:100A96000C1212D2020B527E057F16121B0C12107C
:100AA600D1020B527E057F50121B0C121596020BBB
:100AB600527E057F6A121B0C7E057F86121B0C7EFA
:100AC600057FE3121B0C12120D020B527E057FF1FD
:100AD600121B0C7E067F1F121B0C7E057FE3121B6A
:100AE6000C12114080667E067FD9121B0C7E077F92
:100AF60007121B0C7E057FE3121B0C12162E804C70
:100B06007E077F61121B0C7E077F8F121B0C7E05F2
:100B16007FE3121B0C12190380327E077FDA121B49
:100B26000C7E087F00121B0C7E057FE3121B0C1245
:100B36001A5380187E087F47121B0C7E087F6512A9
:100B46001B0C7E057FE3121B0C121A73121D6B22FF
:100C95000D0A0D0A202020202020202020202020A1
:100CA500202020202020202020202054582D314392
:100CB50020424F41524420544553542020200D0AD0
:100CC5000D0A2020202020202020202020506C6587
:100CD5006173652063686F73652074686520696E4C
:100CE500646578206E756D626572207468656E2026
:100CF500707265737320456E7465722020200D0A2D
:100D05000D0A312E4C4544202020202020322E442F
:100D150041202020202020332E4144202020202047
:100D250020342E6B6579202020202020352E445339
:100D35003138423230202020202020362E313630E6
:100D4500322020202020202020200D0A372E31326D
:100D550038363420202020382E323463303220209B
:100D650020392E646F742020202020612E313238E6
:100D7500383720202020622E737465706D6F746F74
:100D85007220202020632E64636D6F746F722020A3
:100D95000920200D0A642E68656C6D202020202016
:100DA500652E72656C617920202020200D0A0D0AC0
:0D0DB50054584D43555F434D443D3D3E00B5
:031AB200013E648E
:080003008F993099FDC299228A
:101B0C00AD07AC068D828C83E49360100DED7001F3
:0D1B1C000C14F582E493FF12000380E82210
:071D6B007E0C7F95021B0CAA
:101BB400758921758DFD758BFDD28EC29FD29ED203
:091BC4009CD2AFD2AC75878022DF
:030023000211A91E
:1011A900C0E0C0D0309858C298E5996431604DE5E7
:1011B9009964326047E59964336041E59964346024
:1011C9003BE59964356035E5996436602FE59964A6
:1011D900376029E59964386023E5996439601DE52C
:1011E9009964616017E59964626011E599646360C7
:1011F9000BE59964646005E599B4650385993ED06A
:04120900D0D0E0322F
:081D52007F967EFADEFEDFFA47
:011D5A002266
:1016A5001217A1D2A57DFEE53E6431702AF531E51C
:1016B50031C3940850F18D90121D52C2A3121D52D0
:1016C500D2A37801AF05EF08800123D8FDFDE53EE3
:0716D500B431D4053180D8C7
:0116DC0022EB
:0D1D0200EFD3940040077E7DDEFE1F80F3CE
:011D0F0022B1
:101776001217A1C2B2E4F531C2B6E53EB4321BE49B
:10178600F532E532C394FF50F18532807F14121D85
:0A17960002E53EB432E4053280E8BB
:0117A0002226
:061C2B00D2A7C2A77F0A48
:0D1C3100EFD3940040077E7DDEFE1F80F3A0
:011C3E002283
:10154300C2A6EF901C8E93F580D2A6C2A6C2A77541
:10155300807E121C2BC2A6748E2DF582741C3CF562
:1015630083E493F580D2A6C2A6C2A775807D121C20
:101573002BC2A6748E2BF582741C3AF583E493F583
:1015830080D2A6C2A6C2A775807BD2A7C2A77F0AB4
:03159300021C3106
:101270007531F01217A1E53E64337055D2A7F580A1
:10128000C2B600D2B67580FFC2A7791EE533FD7CD9
:1012900000E534FB7A00AF32121543D9EFD2A775BF
:1012A00090FFE4F580C2B7AF90D2B77580FFC2B6A9
:1012B0008F90EF75F06484F532EF75F06484AEF0D2
:1012C000EE75F00A84F533EE75F00A8485F034800B
:0112D000A578
:0112D10022FA
:101C8E003F065B4F666D7D077F6F777C395E79719E
:021C9E00BF4045
:041BFF00D2A3AF328C
:101C0300EF901C8E93F580D2A6C2A6D2A775804012
:031C1300C2A72243
:0D1D1000EFD3940040077E7DDEFE1F80F3C0
:011D1D0022A3
:1008B0001217A1E53E64346003020A1575B0FE8587
:1008C000B0315331F0E53164F060457F0A121D10FC
:1008D000E53164F0603A85B031E5312482601B2453
:1008E000C0601224E0600924F07012753210800D8F
:1008F00075320180087532028003753203E5316478
:10090000F0600A85B0315331F0C2A380F0121BFFB2
:1009100075B0FD85B0315331F0E53164F060457F4D
:100920000A121D10E53164F0603A85B031E53124DA
:1009300083601B24C0601224E0600924F0701275EB
:100940003204800D753205800875320680037532D9
:1009500007E53164F0600A85B0315331F0C2A380FD
:10096000F0121BFF75B0FB85B0315331F0E53164F7
:10097000F060457F0A121D10E53164F0603A85B0E1
:1009800031E5312485601B24C0601224E060092415
:10099000F07012753208800D753209800875320AC0
:1009A000800375320BE53164F0600A85B031533154
:1009B000F0C2A380F0121BFF75B0F785B031533140
:1009C000F0E53164F070030208B37F0A121D10E5F0
:1009D0003164F070030208B385B031E531248960D9
:1009E0001B24C0601224E0600924F0701275320CE0
:1009F000800D75320D800875320E800375320FE55B
:100A00003164F0600A85B0315331F0C2A380F01236
:050A10001BFF0208B30A
:010A150022BE
:0819B100D2A7C2A77F027E004D
:1019B900EF4E60147DC87C00ED1D70011CED4C706C
:0819C900F7EF1F70EB1E80E830
:0119D10022F3
:101A9300C2A27F677E00EF1F70011EEF4E70F7D268
:0E1AA300A27E007F04EF1F70011EEF4E70F751
:011AB1002212
:1018BB00C2A20FBF0000D2A20FBF00000FBF0000DB
:1018CB00A2A292037E007F08EF1F70011EEF4E70E5
:0318DB00F7A2036E
:0118DE0022E7
:101B2900E4FD7C011218BBE433FFC4333333548022
:0C1B3900FEEDC3134EFD0CBC09EAAF0525
:011B4500227D
:0C14EF00121A937F017E001219B97FCC05
:1014FB007E01EF139203EFC313FF30031BC2A20B4A
:10150B00BB00000BBB0000D2A27A007B08EB1B7068
:10151B00011AEB4A70F7801BC2A27A007B08EB1B07
:10152B0070011AEB4A70F7D2A20BBB00010A0BBB7E
:07153B0000010A0EBE09BB0E
:011542002286
:081D5B001214EF7F440214FB97
:101331001214EF7FBE1214FB121B29AB07121B29DB
:101341007535008F36E536753600F535AF03EF425A
:1013510036E4AC35AD36120229E4FBFA7980783DEA
:1013610012011E8F348E338D328C31E4FFFE7D20CD
:101371007C41AB34AA33A932A83112011EE4FBFA35
:0D138100F9783F12002D1202628E358F3672
:01138E00223C
:040FB700AB07AA06D4
:100FBB007C007D0A1203058F327C007D64AF03AE8B
:100FCB00021203058F31AE02AF037C007D64120366
:100FDB0005AF05EF75F00A84FBEF75F00A84AAF0F4
:100FEB00E4F580C2A6E531901C8E93F580D2A6C2A3
:100FFB00A67580FFC2A775807E1219B1E4F580C279
:10100B00A6AF03EF934480F580D2A6C2A67580FFEE
:10101B00C2A775807D1219B1E4F580C2A6AF02EFAD
:10102B0093F580D2A6C2A67580FFC2A775807BD22E
:0A103B00A7C2A77F027E000219B9C8
:101C3F001217A1E53EB4350B121D5B121331120FB3
:041C4F00B780F02248
:101B630054582D31432054455354202020005757B7
:0C1B7300572E54584D43552E434F4D0043
:0717CB00121BCD7F147E000C
:1017D200E53EB4361DD3EF9400EE940040147D0A2A
:1017E2007C00ED1D70011CED4C70F7EF1F70E61EC2
:0217F20080E392
:0117F40022D2
:10192700E53EB4361DD3EF9400EE940040147D6479
:101937007C00ED1D70011CED4C70F7EF1F70E61E6B
:0219470080E33B
:01194900227B
:101BCD008F80C2B5C2B47F0A7E001217D2D2B47F05
:091BDD000A7E001217D2C2B422E4
:101BE6008F80D2B5C2B47F0A7E001217D2D2B47FDC
:091BF6000A7E001217D2C2B422CB
:101B7F007F381217CB7F0F1217CB7F061217CB7F31
:0B1B8F0001121BCD7F147E000217D254
:1012D2001217A1121B7F7F911217CBE4FBEB901B1D
:1012E2006393FF121BE61217CE0BBB0DF07FD112D8
:1012F2001BCD7F327E001217D2E4FBEB901B719361
:10130200FF121BE67F287E001217D20BBB0DECE406
:10131200FB7F18121BCD7FC87E001219270BBB1052
:0E132200F07FE87E03121927E53E643660FA7C
:01133000229A
:10166B00CCECCFE9B5E7D7D300CAC7C4FAD7EEBAEB
:10167B00C3B5C4D1A1D4F1A3A1200054582D433537
:10168B003120426F61726454657374007777772EE3
:0A169B0074786D63752E636F6D00A7
:0419D2007F057E000F
:0A19D600EF1FAC0670011E4C6012FA
:1019E000E4F531E531C394FA50EC00000000053114
:0219F00080F184
:0119F20022D2
:101C5300C2B5D2B6D2B400000000E580339203C20D
:031C6300B4A20325
:011C6600225B
:10196D00121C535006E53E643760F5C2B5C2B6C2CF
:10197D00B400008F8000000000D2B400000000C24F
:02198D00B42282
:1019F300121C535006E53E643760F5D2B5C2B6C239
:101A0300B48F8000000000D2B400000000C2B422F2
:10187000D2B77F3412196D1219D27F3012196D123E
:1018800019D27F0C12196D1219D27F0112196D7FB6
:06189000057E000219D6DE
:1010D1001217A17F0A7E001219D6121870E4FDFFC3
:1010E100121A13E4FEEE90166B93FF60061219F3C9
:1010F1000E80F2E4FD7F01121A13E4FEEE901674E5
:1011010093FF60061219F30E80F2E4FD7F02121ABA
:1011110013E4FEEE90168693FF60061219F30E801B
:10112100F2E4FD7F03121A13E4FEEE90169793FF8B
:0E11310060061219F30E80F2E53E643760FA94
:01113F00228D
:101A1300EF70047F808013BF01047F90800CBF02AE
:101A2300047F888005BF03027F98EF2DFF02196DA5
:021AB500C1026C
:0D1D1E00EFD3940040077E7DDEFE1F80F3B2
:011D2B002295
:10171400C2A6EF901C8E93F580D2A6C2A6C2A7756E
:10172400807ED2A7C2A77F05121D1EC2A6ED93F527
:1017340080D2A6C2A6C2A775807DD2A7C2A77F0504
:03174400021D1E65
:101C1600E4FDFCEFFBC3ED9BEC940050070DBD000B
:041C2600010C80EF3E
:011C2A002297
:051D7200121D77D2A153
:011D77002249
:0A001600D2A1121D77D2A0021D77BF
:0F1CF300D2A0121D72C2A0121D77C2A1021D77CE
:0A1D4800C2A0121D72D2A0021D7786
:101AD000E4FEEF25E0FFC2A1121D7792A0121D7255
:0E1AE0000EBE08EEC2A1121D77D2A0021D7725
:10184900E4FEC2A1121D77D2A0FD121D7230A004C0
:101859007F018002E4FFEE25E04FFEC2A10DBD0825
:06186900E9121D77AF0635
:01186F002256
:0B194A00121AD0121955AF05121AD066
:10195500E4FFD2A1121D7730A009EFC394FF500315
:081965000F80F4C2A1021D77FE
:02189600AD079C
:10189800121CF37FA012194A121CF37FA1121AD04E
:1018A800121955121849AE07121D487F0A121C1644
:0218B800AF0679
:0118BA00220B
:101AEE00AC07C2AF121CF37FA0121AD0121955AF59
:0E1AFE000412194A121D48D2AF7F32021C1684
:101596001217A11200167F021218968F3AE53E64C2
:1015A600387036E53AB46403E4F53AD202053A7C7B
:1015B600FFAF041CEF6014E53A75F00A84FFE53AC4
:1015C60075F00A84ADF012171480E63002CFC2021D
:1015D600AD3A7F02121AEE80C47580FFD2A7C2A769
:0115E60022E2
:1013EA00FEFDFBF7EFDFBF7F00003E41413E0000FC
:1013FA000000427F400000000000625149460000A0
:10140A000000224949360000000038267F200000EB
:10141A0000004F494931000000003E4949320000AE
:10142A000000037109070000000036494936000030
:08143A0000002649493E0000B4
:101C7B00E4FEC292EF339290EF25E0FFD2920EBEBC
:021C8B0008F05F
:011C8D002234
:05000E00C291D2912215
:10120D00E4F531F5321217A1E53E64397054F5322B
:10121D00E532C3940A50F1E53EB439EC007DFA7C19
:10122D00FADCFEE4F531E5319013EA93FF121C7BF5
:10123D00E53275F008A424F2F582E43413F583E564
:10124D00822531F582E43583F583E493FF121C7B0F
:10125D0012000E0531E531C3940840CADDC30532D5
:02126D0080AE51
:01126F00225C
:101B460020323020202D20202D2020202020200073
:0D1B56002020202020203A20203A202000CE
:04198F007F057E0052
:10199300D3EF9400EE940040147D6E7C00ED1D7037
:0D19A300011CED4C70F7EF1F70E61E80E395
:0119B0002214
:100E7F00D2AFD2AAD28AC200E4F512F515750D01D0
:100E8F00C2B4C2B77D207F0A1218EC7D267F0B12E9
:100E9F0018EC121CD37F38121BCD7F147E00121753
:100EAF00D27F0C121BCD7F147E001217D27F061239
:100EBF001BCD7F147E001217D27F01121BCD7F1422
:100ECF007E001217D27F80121BCD7F147E00121767
:100EDF00D2E4F531E531901B4693FF121BE67F0AF2
:100EEF007E001219930531E531C3940F40E67FC0A0
:100EFF00121BCDE4F531E531901B5693FF121BE623
:100F0F007F0A7E001219930531E531C3940B40E639
:010F1F0022AF
:1017F500ED75F00A1202E3F531ED75F00A1202E318
:1018050085F032EF24C0FF121BCDE5312430FF12E5
:0A1815001BE6E5322430FF021BE65B
:10181F00ED75F00A1202E3F531ED75F00A1202E3ED
:10182F0085F032EF2480FF121BCDE5312430FF12FB
:0A183F001BE6E5322430FF021BE631
:100DC2008F3F7F8C121BCDE53F14B4070040030216
:100DD2000E7E900DE275F003A4C58325F0C58373E2
:100DE200020DF7020E04020E19020E2D020E41022E
:100DF2000E55020E697F4D121BE612198F7F4F02AC
:100E02000E737F54121BE612198F7F55121BE612C6
:100E1200198F7F45020E7B7F57121BE612198F7FB7
:100E220045121BE612198F7F44804E7F54121BE637
:100E320012198F7F48121BE612198F7F55803A7F55
:100E420046121BE612198F7F52121BE612198F7F70
:100E52004980267F53121BE612198F7F41121BE62F
:100E620012198F7F5480127F53121BE612198F7F43
:0D0E720055121BE612198F7F4E121BE6224F
:0D18DF000F1218EC0F1218EC0F1218EC0F7E
:1018EC00C294D295D297D2968F80C295C2968D8093
:0718FC00D296D295D294228E
:101B9A00D295D297D296C2948F80C295C2977580F9
:091BAA00FFAF80D297D295D294CE
:011BB300220F
:101CD300E4FDFF1218EC1218DF1218DF0F0218ECE4
:101140001217A1120E7FE53E6461705C7F09121BCD
:101150009A8F0E7F08121B9A8F0C7F07121B9A8F93
:10116000107F06121B9A8F0D7F04121B9A8F117F1E
:1011700002121B9A8F0FFF121B9A8F0BAD0B7F0A67
:101180001217F5AD0F7F071217F5AD117F04121777
:10119000F5AD0E7F0212181FAD0C7F0512181FADA2
:0911A000107F0812181F809E2226
:081D630001020408080402015A
:101AB700042100000000012900012700012C00017A
:021AC7002B00F2
:0D1D2C00EFD3940040077E7DDEFE1F80F3A4
:011D39002287
:10138F00C2A6E5277015901C8E93F580D2A6C2A633
:10139F007580FDD2A7C2A77F05803CC37405952732
:1013AF00FFE49400FE748E2FF582741C3EF583E4E7
:1013BF0093F580D2A6C2A6C2A77580FDD2A7C2A7F9
:1013CF007F0A121D2C852980D2A6C2A6C2A77580BE
:0B13DF00FED2A7C2A77F0A121D2C221D
:1016DD00AD2CE52C2404FFE433FEEDC39FEE6480B6
:1016ED00F87480985020ED901D6393540FFFE59092
:1016FD0054F04FF590E4FCECC39527500612138F70
:06170D000C80F40D80CCFD
:0117130022B3
:10149A00E5286401704EE52324F8602624F06018DC
:1014AA0024D8603324FD602414601C24E6600E24D2
:1014BA0052702E7527048029752703802475270208
:1014CA00801F752701801A632BFF8015E52760119D
:1014DA00E4F52CF529800AE5276006752C047529A0
:0514EA0040E4F528229A
:10162E001217A1E4F530F52FF52EF52DC2A0F52AEF
:10163E00D2AFD28AD2ACD2AA758921F58CF58AD2D4
:10164E008CD2A5E53EB4621412149AE52B600512F5
:0D165E0016DD80EF5390F012138F80E7220D
:061AC900013C00013B009E
:0D1D3A00EFD3940040077E7DDEFE1F80F396
:011D47002279
:101A3300C2A6E53C75F00A84901C8E93F580D2A66D
:101A4300C2A6C2A77580FED2A7C2A77F05021D3A10
:10144200E52864017051E52324F7601D24F4602C23
:1014520024D17040633BFFE53B6008E53C6035D238
:10146200A98031C2A9C297802B740A253CF53CE4BD
:10147200F53DE53CB43C1D753C32801874F6253CC4
:10148200F53CE4F53DE53C7003753C0AE53CB4F6F9
:0814920003E4F53CE4F5282217
:101CB10043890143A882758CFE758A33D28CC2A9EF
:011CC1002200
:101903001217A1D28AD2AA121CB1E4F53CF53DC24A
:1019130097D2A5121CB1E53EB46308121442121A01
:041923003380F322F8
:061C6700D2A7C2A77F0511
:0D1C6D00EFD3940040077E0ADEFE1F80F3D7
:011C7A002247
:100F2000E51F24FE601314601814601C1460212453
:100F3000047023E4FBFCFD801DE4FB7C047D058044
:100F400015E4FB7C09FD800E7B017C037D0580069A
:100F50007B017C08E4FDC2A6C2A7E4F580D2A6C24C
:100F6000A67580FFD2A7C2A7EB901C8E93F580D206
:100F7000A6C2A67580FE121C67E4F580D2A6C2A6A2
:100F80007580FFD2A7C2A7EC93F580D2A6C2A67542
:100F900080FD121C67E4F580D2A6C2A67580FFD240
:100FA000A7C2A7ED93F580D2A6C2A67580FBD2A7F3
:070FB000C2A77F05021C6DC2
:10174700E52864017028E52324EB6013240C701B43
:10175700051FE4F51EE51FB40611751F05800C155E
:0F1767001FE4F51EE51F7003751F01E4F528222E
:101CC20043890143A882758CFE758A33D28CD2A9CE
:011CD20022EF
:101A53001217A1D2AFD2AAD28A121CC2751F01E4F7
:101A6300F51EE53EB46408121747120F2080F322D7
:101CE300E528B4010AE523B44402B2A0E4F52822AE
:101A73001217A1D2AFD28AD2AA758921E4F58CF5C7
:101A83008AD28CC2A0E53EB46505121CE380F6221F
:03000B000215E7F4
:1015E700C0E0C0D0E53EB4631B758CFE758A330539
:1015F7003DE53DB53C02C297E53D643C7024D2977A
:10160700F53D801EE53EB46419758CFE758A330579
:101617001EE51EB51F02C297E51EB42805D29775B1
:071627001E00D0D0D0E0321C
:03001300020B5687
:100B5600C0E0C0F0C083C082C0D075D000C000C065
:100B660001C002C003C004C005C006C007AF8CEFB9
:100B7600FEAD8A7C00E42DF526EC3EF525758C004D
:100B8600758A00D3E5269440E525941F401CE5268A
:100B960094B0E52594365012753000752F00752EE9
:100BA60000752D00752A01020C7AE52A640160039E
:100BB600020C7AD3E52694AAE52594054043E5265A
:100BC60094B8E525940B5039E47B08FAF9F8AF3070
:100BD600AE2FAD2EAC2D12039674212FF8E6C3135B
:100BE6004480FEC00674212FF8D0E0F6E5302401DB
:100BF600F530E4352FF52FE4352EF52EE4352DF5B9
:100C06002DD3E52694BCE5259402403CE52694AA1E
:100C1600E52594055032E47B08FAF9F8AF30AE2F9B
:100C2600AD2EAC2D12039674212FF8C000E6C31327
:100C3600D000F6E5302401F530E4352FF52FE43504
:100C46002EF52EE4352DF52DE47F20FEFDFCAB3090
:100C5600AA2FA92EA82DC31204367018F530F52F29
:100C6600F52EF52DF52AE524F4B523057528018022
:100C760003752800D007D006D005D004D003D002D3
:0F0C8600D001D000D0D0D082D083D0F0D0E032D7
:100026000202CEE86480F8E933E83360110460F038
:10003600ED33EC337009E8FCE9FDEAFEEBFF220440
:1000460060DED3EB9FEA9EE99DE8C2E78CF0C2F73B
:1000560095F0400CE8CCF8E9CDF9EACEFAEBCFFB07
:1000660012029985D0F05804700320D5B3E80470C5
:10007600075002B2D50202D892D5EC0460F7E4CC60
:10008600C0E0C398F8603B94186008400DD0E0FBD0
:100096000202B0E4FBFAC9FC8028E830E406E4C9B1
:1000A600FBE4CAFCE830E305E4C9CACBFCE8540724
:1000B6006010F8C3E913F9EA13FAEB13FBEC13FC2F
:1000C600D8F130F52FC3E49CFCEF9BFFEE9AFEEDD2
:1000D60099FDD0E0FBEF4E4D4C701222DB0302027D
:1000E600D5EC2CFCEF33FFEE33FEED33FDED30E7C0
:1000F600EB0202B0EF2BFFEE3AFEED39FDD0E0FB4E
:1001060050130BBB00030202D8ED13FDEE13FEEFF6
:0801160013FFEC13FC0202B020
:10011E00EC4D6011E8497017ED33EC3304600DE4DB
:10012E00FCFFFEFD22E933E8330470F80202CE1222
:10013E00029958046009E4CC248150062850090223
:10014E0002D82840030202D5C0E0EB4A7044B980C1
:10015E0006D0E0FB0202C4EF4E701CBD8008EBFF20
:10016E00EAFEE9FD80EBE98DF0A4FEE5F002020760
:10017E00E9CDF9EAFEEBFFEF89F0A4FCE5F0CE89BC
:10018E00F0A42EFFE435F0CD89F0A42DFEE435F079
:10019E008067EF4E7005BD80D780C3EF8BF0A4ACA7
:1001AE00F0EE8BF0A42CFCE435F0F8EF8AF0A42CE2
:1001BE00E5F038FCE433CB8DF0A42CFCE5F03BF8F5
:1001CE00EE8AF0A42CFCE5F038F8E433CF89F0A4E5
:1001DE002CFCE5F038CF3400CE89F0A42FFFE5F0EB
:1001EE003EFEE433C98DF0A42EFEE5F039CD8AF043
:1001FE00A42FFFE5F03EFEE43DFD33D0E0FB5007BB
:10020E000BBB000F0202D8EC2CFCEF33FFEE33FEDB
:06021E00ED33FD0202B009
:1002240075F020800E75F010800575F0087D007E55
:10023400007F003392D530D503120428EC334010EC
:10024400EF33FFEE33FEED33FDEC33FCD5F0ED225E
:0E025400E5F0247EA2D513CC92E7CDCEFF229A
:10026200EDD2E7CD33EC3392D524814006E4FFFE94
:10027200FDFC22FCE4CFCECDCC24E0501174FF80F3
:10028200EDC3CC13CCCD13CDCE13CECF13CF047090
:07029200F030D5DE02042864
:10029900E9D2E7C933E833F892D5EDD2E7CD33ECAB
:0702A90033FC5002B2D52224
:1002B000EC30E7100FBF000C0EBE00080DBD0004AF
:1002C0000BEB6014A2D5EB13FCED92E7FD2274FF5B
:1002D000FCFDFEFF22E480F8A2D574FF13FC7D80B4
:0302E000E480EFC8
:03000000021045A6
:0C104500787FE4F6D8FD75813F02108C26
:1002E300C2D530F707B2D563F0FF05F030E70CB2A3
:1002F300D5F4048463F0FF05F080018430D502F463
:020303000422D2
:10030500BC000BBE0029EF8DF084FFADF022E4CCDC
:10031500F875F008EF2FFFEE33FEEC33FCEE9DECA5
:10032500984005FCEE9DFE0FD5F0E9E4CEFD22EDEB
:10033500F8F5F0EE8420D21CFEADF075F008EF2F35
:10034500FFED33FD4007985006D5F0F222C398FD26
:050355000FD5F0EA22C3
:10035A0075F008758200EF2FFFEE33FECD33CDCC5A
:10036A0033CCC58233C5829BED9AEC99E5829840DD
:10037A000CF582EE9BFEED9AFDEC99FC0FD5F0D6BA
:10038A00E4CEFBE4CDFAE4CCF9A88222B800C1B9E4
:10039A000059BA002DEC8BF084CFCECDFCE5F0CB22
:1003AA00F97818EF2FFFEE33FEED33FDEC33FCEB5B
:1003BA0033FB10D703994004EB99FB0FD8E5E4F916
:1003CA00FA227818EF2FFFEE33FEED33FDEC33FC03
:1003DA00C933C910D7059BE99A4007EC9BFCE99AF7
:1003EA00F90FD8E0E4C9FAE4CCFB2275F010EF2F3C
:1003FA00FFEE33FEED33FDCC33CCC833C810D7073C
:10040A009BEC9AE899400AED9BFDEC9AFCE899F876
:0E041A000FD5F0DAE4CDFBE4CCFAE4C8F92209
:0E042800C3E49FFFE49EFEE49DFDE49CFC22E5
:10043600EB9FF5F0EA9E42F0E99D42F0E89C45F01C
:010446002293
:10044700D083D082F8E4937012740193700DA3A344
:1004570093F8740193F5828883E473740293686058
:06046700EFA3A3A380DF58
:10105100021CA0E493A3F8E493A34003F68001F2F9
:1010610008DFF48029E493A3F85407240CC8C333A0
:10107100C4540F4420C8834004F456800146F6DF6F
:10108100E4800B0102040810204080901AB2E47E33
:10109100019360BCA3FF543F30E509541FFEE49364
:1010A100A360010ECF54C025E060A840B8E493A32B
:1010B100FAE493A3F8E493A3C8C582C8CAC583CA56
:1010C100F0A3C8C582C8CAC583CADFE9DEE780BE0E
:011ACF000016
:00000001FF
