:10006F003F065B4F666D7D077F6F777C395E7971D9
:06007F00FEFDFBF7EFDFC0
:10000300E4F508F509E4F508F509D2A6E50925E0C4
:10001300FFE50833FE746F2FF58274003EF583E429
:1000230093F580C2A67580FFD2A7E50990007F9360
:10003300F580C2A77F037E001200510509E5097010
:0E004300020508C39406E508940040BE80B78D
:10005100D3EF9400EE940040147D6E7C00ED1D7092
:0D006100011CED4C70F7EF1F70E61E80E3F0
:01006E00226F
:0300000002008576
:0C008500787FE4F6D8FD758109020003C5
:00000001FF
