:0300CB000109FE2A
:10008F00850990E509C313F509E433F508C4333343
:0E009F0033548042097FF47E011200AD80E2EE
:1000AD00D3EF9400EE940040147D6E7C00ED1D7036
:0D00BD00011CED4C70F7EF1F70E61E80E394
:0100CA002213
:03000000020003F8
:0C000300787FE4F6D8FD75810902004A00
:10000F0002008FE493A3F8E493A34003F68001F278
:10001F0008DFF48029E493A3F85407240CC8C333F2
:10002F00C4540F4420C8834004F456800146F6DFC1
:10003F00E4800B01020408102040809000CBE47E86
:10004F00019360BCA3FF543F30E509541FFEE493B6
:10005F00A360010ECF54C025E060A840B8E493A37D
:10006F00FAE493A3F8E493A3C8C582C8CAC583CAA8
:10007F00F0A3C8C582C8CAC583CADFE9DEE780BE60
:0100CE000031
:00000001FF
