:100003003F065B4F666D7D077F6F777C395E797145
:0C03AB000413000000000111000110000C
:0B03B80012032E1202D612037D80F803
:10032E00E4F520F51FF51EF51DF51CF511F512C2AD
:10033E0097D2AFD28AD2AA758911F58CF58A758DAE
:0D034E00FE758B33D2ABC2A9D28CD28E22A9
:0D039D00EFD3940040077E6EDEFE1F80F35C
:0103AA002230
:10037D00C2A6E51175F00A8490000393F580D2A60C
:10038D00C2A6C2A77580FED2A7C2A77F0502039D94
:0300130002001ECA
:10001E00C0E0C0F0C083C082C0D075D008AF8CEFF6
:10002E00FEAD8A7C00E42DFFEC3EFEE48F1A8E19A5
:10003E00F518F517F58CF58A7F407E1FFDAB1AAAD1
:10004E0019A918A817D31202394020E47FB07E36C2
:10005E00FDFCA8171202395012752000751F00758D
:10006E001E00751D00751C01020160E51C64016017
:10007E00030201607FAA7E05FDFCAB1AAA19A9181E
:10008E00A817D31202394048E47FB87E0BFDFCA8B6
:10009E0017120239503AE47B08FAF9F8AF20AE1F76
:1000AE00AD1EAC1D1201A774132FF8E6FEC3134448
:1000BE0080FEC00E74132FF8D0E0F6E5202401F573
:1000CE0020E4351FF51FE4351EF51EE4351DF51D24
:1000DE00E47FBC7E02FDFCAB1AAA19A918A817D39F
:1000EE001202394041E47FAA7E05FDFCA8171202D8
:1000FE00395033E47B08FAF9F8AF20AE1FAD1EACD1
:10010E001D1201A774132FF8C008E6FFC313D00801
:10011E00F6E5202401F520E4351FF51FE4351EF524
:10012E001EE4351DF51DE47F20FEFDFCAB20AA1F4D
:10013E00A91EA81DC31202397018F520F51FF51E51
:10014E00F51DF51CE516F4B51505751B0180037537
:0D015E001B00D0D0D082D083D0F0D0E03292
:1002D600E51B64017051E51524F7601D24F4602CBC
:1002E60024D170406310FFE5106008E5116035D237
:1002F600A98031C2A9C297802B740A2511F511E491
:10030600F512E511B43C1D751132801874F62511ED
:10031600F511E4F512E511700375110AE511B4F64D
:0803260003E4F511E4F51B22CC
:03001B0002035B82
:10035B00C0E0C0D0758DFE758B330512E512B5115B
:10036B0002C297E512B43C05D297751200D0D0D0DB
:02037B00E0326E
:0300000002024AAF
:0C024A00787FE4F6D8FD75812002029157
:10016B0075F008758200EF2FFFEE33FECD33CDCC4B
:10017B0033CCC58233C5829BED9AEC99E5829840CE
:10018B000CF582EE9BFEED9AFDEC99FC0FD5F0D6AB
:10019B00E4CEFBE4CDFAE4CCF9A88222B800C1B9D5
:1001AB000059BA002DEC8BF084CFCECDFCE5F0CB13
:1001BB00F97818EF2FFFEE33FEED33FDEC33FCEB4C
:1001CB0033FB10D703994004EB99FB0FD8E5E4F907
:1001DB00FA227818EF2FFFEE33FEED33FDEC33FCF4
:1001EB00C933C910D7059BE99A4007EC9BFCE99AE8
:1001FB00F90FD8E0E4C9FAE4CCFB2275F010EF2F2D
:10020B00FFEE33FEED33FDCC33CCC833C810D7072C
:10021B009BEC9AE899400AED9BFDEC9AFCE899F867
:0E022B000FD5F0DAE4CDFBE4CCFAE4C8F922FA
:10023900EB9FF5F0EA9E42F0E99D42F0E89C45F01B
:010249002292
:100256000203B8E493A3F8E493A34003F68001F203
:1002660008DFF48029E493A3F85407240CC8C333A9
:10027600C4540F4420C8834004F456800146F6DF78
:10028600E4800B01020408102040809003ABE47E5A
:10029600019360BCA3FF543F30E509541FFEE4936D
:1002A600A360010ECF54C025E060A840B8E493A334
:1002B600FAE493A3F8E493A3C8C582C8CAC583CA5F
:1002C600F0A3C8C582C8CAC583CADFE9DEE780BE17
:0103B7000045
:00000001FF
