:100140003F065B4F666D7D077F6F777C395E797107
:06015000FEFDFBF7EFDFEE
:09017300010B04010900010A005E
:0B01680012012112008F1200CC80F861
:10012100C297850B08D2A6900140E493F580C2A640
:0F0131007580FFD2A7900150E493F580C2A722FA
:10008F0020B41B7F0A7E0012010120B4110509D391
:10009F00E50964809484400375090430B4FD20B5EC
:1000AF001B7F0A7E0012010120B5111509C3E50956
:0D00BF00648094805003E4F50930B5FD2203
:1000CC0085090AC3E50B9509F508E4F50CE50CC3A5
:1000DC00950A500BD297AF09120156050C80EEE42D
:1000EC00F50CE50CC39508500BC297AF09120156DD
:0400FC00050C80EE81
:0101000022DC
:10015600D2A6EF90014093F580C2A67F1E7E0002D4
:02016600010195
:10010100E4FDFCC3ED9FEC9E5015E4FBFA0BBB0034
:0F011100010AEB646E4A70F50DBD00010C80E42D
:0101200022BC
:03000000020003F8
:0C000300787FE4F6D8FD75810C02004AFD
:10000F00020168E493A3F8E493A34003F68001F29E
:10001F0008DFF48029E493A3F85407240CC8C333F2
:10002F00C4540F4420C8834004F456800146F6DFC1
:10003F00E4800B0102040810204080900173E47EDD
:10004F00019360BCA3FF543F30E509541FFEE493B6
:10005F00A360010ECF54C025E060A840B8E493A37D
:10006F00FAE493A3F8E493A3C8C582C8CAC583CAA8
:10007F00F0A3C8C582C8CAC583CADFE9DEE780BE60
:01017C000082
:00000001FF
