:1001A5003F065B4F666D7D077F6F777C395E7971A2
:0601B500FEFDFBF7EFDF89
:100175001201F57F011201088F10E510C394644048
:0901850003E4F5101201BB80FE39
:1001BB00758901758C4C758AD0D2AFD2A9D28C229D
:03000B0002000EE2
:10000E00C0E0C0F0C083C082C0D075D000C000C0B8
:10001E0001C002C003C004C005C006C007758C4CE9
:10002E00758AD00513E513C3940A401575130005A0
:10003E0010E51094644003751000AD107F0112019D
:10004E0033D007D006D005D004D003D002D001D0D3
:0C005E0000D0D0D082D083D0F0D0E032AF
:10006A00EF75F00A84F511EF75F00A8485F012E451
:10007A00F514D2A674112514F8E69001A593F5801B
:10008A00C2A67580FFD2A7E5149001B593F580C288
:10009A00A77F037E001201550514E514C39402409C
:0100AA00D184
:0100AB002232
:0A01F500D2A0120003D2A102000301
:100133008F088D091201CB7FA01200DB12018EAF55
:10014300081200DB12018EAF091200DB12018E02CE
:0201530001DACF
:020108008F0C5A
:10010A001201CB7FA01200DB12018EAF0C1200DBB2
:10011A0012018E1201CB7FA11200DB12018E120096
:08012A00AC8F0D1201DAAF0DDC
:0101320022AA
:0200DB008F0E86
:1000DD00E4F50FE50E25E0F50EC2A112000392A086
:1000ED00120003D2A1120003050FE50FC3940840BF
:0B00FD00E2C2A1120003D2A002000327
:1000AC00C2A1120003D2A0120003E4F50ED2A112D9
:1000BC000003E50F25E0FFA2A0E4334FF50FC2A12A
:0E00CC00120003050EE50EC3940840E1AF0FCD
:0100DA002203
:0F01CB00D2A0120003D2A1120003C2A0020003AF
:0F01DA00C2A0120003D2A1120003D2A0020003A0
:10018E00D2A112000330A00AAF0E050EEFC394FAEF
:07019E0040F3C2A1020003BF
:0100030022DA
:10015500E4FDFCC3ED9FEC9E5015E4FBFA0BBB00E0
:0F016500010AEB646E4A70F50DBD00010C80E4D9
:010174002268
:030000000201E911
:0C01E900787FE4F6D8FD758120020175D6
:00000001FF
