:100317003F065B4F666D7D077F6F777C395E79712E
:06032700FEFDFBF7EFDF15
:06034C0004100000000097
:0D00030012032D120340AF181202CE80F63A
:10032D00D2AFD28AD2AA758901E4F58CF58AD28C26
:03033D00C2A92230
:08030100E493F580C2A77F031D
:0D030900EFD3940040077E6EDEFE1F80F3F0
:0103160022C4
:1002CE00AD07D2A6EDC4540F90031793F580C2A6C6
:1002DE007580FFD2A7900327120301D2A6ED540F0B
:1002EE0090031793F580C2A67580FFD2A7900328BE
:0302FE00020301F7
:03001300020016D2
:10001600C0E0C0F0C083C082C0D075D008AF8CEFFE
:10002600FEAD8A7C00E42DFFEC3EFEE48F178E16B3
:10003600F515F514F58CF58A7F407E1FFDAB17AAE2
:1000460016A915A814D31202314020E47FB07E36DB
:10005600FDFCA8141202315012751E00751D0075A4
:100066001C00751B00751A01020158E51A6401602F
:10007600030201587FAA7E05FDFCAB17AA16A91537
:10008600A814D31202314048E47FB87E0BFDFCA8C9
:1000960014120231503AE47B08FAF9F8AF1EAE1D8D
:1000A600AD1CAC1B12019F74102FF8E6FEC313445F
:1000B60080FEC00E74102FF8D0E0F6E51E2401F580
:1000C6001EE4351DF51DE4351CF51CE4351BF51B3A
:1000D600E47FBC7E02FDFCAB17AA16A915A814D3B3
:1000E6001202314041E47FAA7E05FDFCA8141202EB
:1000F600315033E47B08FAF9F8AF1EAE1DAD1CACE7
:100106001B12019F74102FF8C008E6FFC313D00816
:10011600F6E51E2401F51EE4351DF51DE4351CF536
:100126001CE4351BF51BE47F20FEFDFCAB1EAA1D5F
:10013600A91CA81BC31202317018F51EF51DF51C6B
:10014600F51BF51AE513F4B512057519018003754B
:0D0156001900D0D0D082D083D0F0D0E0329C
:0C034000E519B40106851218E4F5192235
:03000000020242B7
:0C024200787FE4F6D8FD75811E02028969
:1001630075F008758200EF2FFFEE33FECD33CDCC53
:1001730033CCC58233C5829BED9AEC99E5829840D6
:100183000CF582EE9BFEED9AFDEC99FC0FD5F0D6B3
:10019300E4CEFBE4CDFAE4CCF9A88222B800C1B9DD
:1001A3000059BA002DEC8BF084CFCECDFCE5F0CB1B
:1001B300F97818EF2FFFEE33FEED33FDEC33FCEB54
:1001C30033FB10D703994004EB99FB0FD8E5E4F90F
:1001D300FA227818EF2FFFEE33FEED33FDEC33FCFC
:1001E300C933C910D7059BE99A4007EC9BFCE99AF0
:1001F300F90FD8E0E4C9FAE4CCFB2275F010EF2F35
:10020300FFEE33FEED33FDCC33CCC833C810D70734
:100213009BEC9AE899400AED9BFDEC9AFCE899F86F
:0E0223000FD5F0DAE4CDFBE4CCFAE4C8F92202
:10023100EB9FF5F0EA9E42F0E99D42F0E89C45F023
:01024100229A
:10024E00020003E493A3F8E493A34003F68001F2C3
:10025E0008DFF48029E493A3F85407240CC8C333B1
:10026E00C4540F4420C8834004F456800146F6DF80
:10027E00E4800B010204081020408090034CE47EC1
:10028E00019360BCA3FF543F30E509541FFEE49375
:10029E00A360010ECF54C025E060A840B8E493A33C
:1002AE00FAE493A3F8E493A3C8C582C8CAC583CA67
:1002BE00F0A3C8C582C8CAC583CADFE9DEE780BE1F
:0103520000AA
:00000001FF
