:100234003F065B4F666D7D077F6F777C395E797112
:06024400FEFDFBF7EFDFF9
:0C025900020A000002080000020C4CD059
:0B02660012024A12009A12011A80F8DE
:0F024A00758901E50CF58C850D8AD2AFD2A922FA
:10009A0020B42612021220B420050BE50B700205CB
:1000AA000AC3943CE50A648094804005E4F50AF5A5
:1000BA000B20B40512011A80F820B525120212206D
:1000CA00B51FE50B150B7002150AC3E50A64809487
:1000DA00805006750A00750B3B20B50512011A807F
:1000EA00F820B61312021220B60DE4F50AF50B2019
:1000FA00B60512011A80F820B71512021220B70F9E
:10010A00B28CE4F508F50920B70512011A80F82225
:04011A00AF0BAE0A6F
:04011E00AB07AA067B
:100122007C007D0A12017E8E0E8F0FAE02AF037C21
:10013200007D0A12017E8C108D11D2A6E50F90026D
:100142003493F580C2A67580FFD2A7900244E4934F
:10015200F580C2A77F057E00120216D2A6E5119095
:10016200023493F580C2A67580FFD2A7900245E4BF
:0C01720093F580C2A77F057E00020216F4
:040212007F0A7E00E1
:10021600D3EF9400EE940040147D6E7C00ED1D70CB
:0D022600011CED4C70F7EF1F70E61E80E329
:0102330022A8
:03000B000201D31C
:1001D300C0E0C0D0E50CF58C850D8A0509E50970F2
:1001E300020508C39414E5089400401E75080075C1
:1001F3000900050BE50B7002050A943CE50A6480CF
:0F02030094804006750A00750B00D0D0D0E03211
:0300000002000EED
:0C000E00787FE4F6D8FD758111020055E2
:10017E00BC000BBE0029EF8DF084FFADF022E4CC65
:10018E00F875F008EF2FFFEE33FEEC33FCEE9DEC2E
:10019E00984005FCEE9DFE0FD5F0E9E4CEFD22ED74
:1001AE00F8F5F0EE8420D21CFEADF075F008EF2FBE
:1001BE00FFED33FD4007985006D5F0F222C398FDAF
:0501CE000FD5F0EA224C
:10001A00020266E493A3F8E493A34003F68001F294
:10002A0008DFF48029E493A3F85407240CC8C333E7
:10003A00C4540F4420C8834004F456800146F6DFB6
:10004A00E4800B0102040810204080900259E47EEB
:10005A00019360BCA3FF543F30E509541FFEE493AB
:10006A00A360010ECF54C025E060A840B8E493A372
:10007A00FAE493A3F8E493A3C8C582C8CAC583CA9D
:10008A00F0A3C8C582C8CAC583CADFE9DEE780BE55
:010265000098
:00000001FF
