:100188003F065B4F666D7D077F6F777C395E7971BF
:0E019800FEFDFBF7EFDFFEFDFBF7E0D0B070E1
:0801C400020E000002104CD0F5
:0801CD001201A612000380FBE1
:1001A600D2A6E4F580C2A67580FFD2A77580C0C22C
:0201B600A7227E
:10000300E4F508F509E50990019E93F5B0E5B054D0
:10001300F0750A00F50B64F0450A70030200C97F0E
:100023000A7E0012016AE50990019E93F5B0E5B0DE
:1000330054F0750A00F50B64F0450A70030200C919
:10004300E50A7068E50B2490604D24C0603224E01B
:10005300601724F07056E509AE087802C333CE3337
:10006300CED8F9F50D8E0C8043E509AE087802C3AE
:1000730033CE33CED8F92401F50DE43EF50C802CB4
:10008300E509AE087802C333CE33CED8F92402F59E
:100093000DE43EF50C8015E509AE087802C333CEB6
:1000A30033CED8F92403F50DE43EF50CE50B64F0EB
:1000B300450A6012E5B054F0750A00F50BAF0DAEBA
:1000C3000C1201B880E60509E50970020508D3940E
:0A00D30003E5089400500302000842
:0100DD002200
:0C01B800D2A6EF90018893F580C2A62229
:10016A00D3EF9400EE940040147D6E7C00ED1D7078
:0D017A00011CED4C70F7EF1F70E61E80E3D6
:010187002255
:030000000200DE1D
:0C00DE00787FE4F6D8FD75811102012541
:1000EA000201CDE493A3F8E493A34003F68001F25E
:1000FA0008DFF48029E493A3F85407240CC8C33317
:10010A00C4540F4420C8834004F456800146F6DFE5
:10011A00E4800B01020408102040809001C4E47EB0
:10012A00019360BCA3FF543F30E509541FFEE493DA
:10013A00A360010ECF54C025E060A840B8E493A3A1
:10014A00FAE493A3F8E493A3C8C582C8CAC583CACC
:10015A00F0A3C8C582C8CAC583CADFE9DEE780BE84
:0101CC000032
:00000001FF
