:100134003F065B4F666D7D077F6F777C395E797113
:06014400FEFDFBF7EFDFFA
:1000E100120156D2B600C2B600D2B6E4F508AF127C
:1000F1001200037F0A7E001201140508E508C3946B
:100101000F40EB7590FFD2B700C2B700859012D2B5
:03011100B780D0E4
:0B0156007580FFD2A775807FC2A72232
:020003008F0963
:10000500AB077A00E4F50BEB4A6013050B7C007D2A
:100015000AAF03AE0212008CAA06AB0780E97A008C
:10002500AB09E50B14F50AEB4A60257C007D0AAFA8
:1000350003AE0212008C740C250AF8A605150A7C7D
:10004500007D0AAF03AE0212008CAA06AB0780D76B
:10005500E4F50AE50AC3950B502CD2A6740C250AC3
:10006500F8E690013493F580C2A67580FFD2A7E526
:100075000A90014493547FF580C2A77F037E001246
:060085000114050A80CD04
:01008B002252
:10011400E4FDFCC3ED9FEC9E5015E4FBFA0BBB0021
:0F012400010AEB646E4A70F50DBD00010C80E41A
:0101330022A9
:0300000002014AB0
:0C014A00787FE4F6D8FD7581120200E118
:10008C00BC000BBE0029EF8DF084FFADF022E4CC58
:10009C00F875F008EF2FFFEE33FEEC33FCEE9DEC21
:1000AC00984005FCEE9DFE0FD5F0E9E4CEFD22ED67
:1000BC00F8F5F0EE8420D21CFEADF075F008EF2FB1
:1000CC00FFED33FD4007985006D5F0F222C398FDA2
:0500DC000FD5F0EA223F
:00000001FF
