:06016200C18002081388B1
:1000E400C2A7C2B2E4F580C2B63000217405250A65
:1000F400F50AF580E50AC394FF400DC200C2A37F50
:10010400327E00120142D2A312013280DC74FB253C
:100114000AF50AF580E50AD39400500DD200C2A373
:0E0124007F327E00120142D2A312013280BB54
:10013200E508C313FEE50913FF7C007D3312008F2F
:10014200E4FDFCC3ED9FEC9E5015E4FBFA0BBB00F3
:0F015200010AEB646E4A70F50DBD00010C80E4EC
:01016100227B
:03000000020003F8
:0C000300787FE4F6D8FD75812002004AE9
:10008F00BC000BBE0029EF8DF084FFADF022E4CC55
:10009F00F875F008EF2FFFEE33FEEC33FCEE9DEC1E
:1000AF00984005FCEE9DFE0FD5F0E9E4CEFD22ED64
:1000BF00F8F5F0EE8420D21CFEADF075F008EF2FAE
:1000CF00FFED33FD4007985006D5F0F222C398FD9F
:0500DF000FD5F0EA223C
:10000F000200E4E493A3F8E493A34003F68001F223
:10001F0008DFF48029E493A3F85407240CC8C333F2
:10002F00C4540F4420C8834004F456800146F6DFC1
:10003F00E4800B0102040810204080900162E47EEE
:10004F00019360BCA3FF543F30E509541FFEE493B6
:10005F00A360010ECF54C025E060A840B8E493A37D
:10006F00FAE493A3F8E493A3C8C582C8CAC583CAA8
:10007F00F0A3C8C582C8CAC583CADFE9DEE780BE60
:010168000096
:00000001FF
