:10041E003F065B4F666D7D077F6F777C395E797126
:06042E00FEFDFBF7EFDF0D
:1003EA0002114CD0020A000002130000020F00178B
:0B03FA00020C003A02080032010E0065
:0903420093F580C2A77F037E0041
:10034B00D3EF9400EE940040147D6E7C00ED1D7095
:0D035B00011CED4C70F7EF1F70E61E80E3F3
:010368002272
:07000300D2A012000AD2A1F5
:01000A0022D3
:030467000200038D
:08045F00120003C2A002000A12
:0A045500C2A0120005D2A002000AA6
:08038E0012045F7FA01203CCF2
:10039600D2A112000A30A00AAF160516EFC394FACE
:0703A60040F3C2A102000AAE
:1003CC00E4FEEF25E0FFC2A112000A92A012000584
:0E03DC000EBE08EEC2A112000AD2A002000A54
:10036900C2A112000AD2A012000AE4FED2A1120010
:100379000AEF25E0FDA2A0E4334DFFC2A112000A55
:040389000EBE08E8B4
:01038D00224D
:10040600AC0712038EAF041203CC120396AF05128B
:0804160003CC12039602045509
:0203AD00AD079A
:1003AF0012038EAF051203CC12039612045F7FA1C6
:0C03BF001203CC120396120369120455BD
:0103CB00220F
:10022A001204347F011203AD750F008F107F021282
:10023A0003AD750C008F0D7F031203AD7508008F97
:10024A0009120000E50E24FE600C146014240270EA
:10025A001B12028D80EBAD0DAC0C7F021202938053
:10026A00E0AD10AC0FE4FF12029380D5AD10AC0FD5
:10027A00E4FF120293AD0DAC0C7F0212029312023C
:03028A008D80BEA6
:10043400758901E511F58C85128AD2AFD2A9D28CC7
:05044400C2B7D2A322A3
:0C044900C2A37F647E0012034BD2A322EA
:03000B00020101EE
:10010100C0E0C0D075D000C004C005C006C007E57E
:1001110011F58C85128A0514E51470020513C39438
:1001210014E513940040697513007514000509E581
:100131000970020508FD7F03120406C3E509943C1A
:10014100E508648094804048750800750900050D34
:10015100E50D7002050CFD7F02120406C3E50D9446
:100161003CE50C648094804027750C00750D0005FA
:1001710010E5107002050FFD7F01120406C3E510A2
:100181009418E50F648094804006750F0075100087
:0D019100D007D006D005D004D0D0D0E03289
:10000E0020B0217F0A7E0012034B20B017050E3060
:10001E00B0FD120449E50E24FC7007E4F50ED28CF7
:10002E008002C28CE50E700302010020B1637F0ACC
:10003E007E0012034B20B159E50E24FE60211460A0
:10004E00382402704C0509E50970020508C3943C7A
:10005E00E508648094804039E4F508F5098032059E
:10006E000DE50D7002050CC3943CE50C6480948084
:10007E00401FE4F50CF50D80180510E51070020513
:10008E000FC39418E50F648094804005E4F50FF5D6
:10009E001020B25E7F0A7E0012034B20B254E50E92
:1000AE0024FE601F14603424027047E509150970A0
:1000BE00021508C3E50864809480503675080075F3
:1000CE00093B22E50D150D7002150CC3E50C64807D
:1000DE009480501E750C00750D3B22E510151070A6
:1000EE0002150FC3E50F648094805006750F0075DE
:0300FE00101722B6
:06028D00AD09AC087F047E
:100293008F16AB05AA04D2A67C007D0AAF03AE027B
:1002A3001202ED741E2FF58274043EF583E493F578
:1002B30080C2A67580FFD2A7E51690042E120342D2
:1002C300D2A6AE02AF037C007D0A1202ED741E2D8E
:1002D300F58274043CF583E493F580C2A67580FF30
:0A02E300D2A7E51690042F02034293
:0300000002019E5C
:0C019E00787FE4F6D8FD7581160201E5BB
:1002ED00BC000BBE0029EF8DF084FFADF022E4CCF5
:1002FD00F875F008EF2FFFEE33FEEC33FCEE9DECBE
:10030D00984005FCEE9DFE0FD5F0E9E4CEFD22ED03
:10031D00F8F5F0EE8420D21CFEADF075F008EF2F4D
:10032D00FFED33FD4007985006D5F0F222C398FD3E
:05033D000FD5F0EA22DB
:1001AA0002022AE493A3F8E493A34003F68001F23F
:1001BA0008DFF48029E493A3F85407240CC8C33356
:1001CA00C4540F4420C8834004F456800146F6DF25
:1001DA00E4800B01020408102040809003EAE47EC8
:1001EA00019360BCA3FF543F30E509541FFEE4931A
:1001FA00A360010ECF54C025E060A840B8E493A3E1
:10020A00FAE493A3F8E493A3C8C582C8CAC583CA0B
:10021A00F0A3C8C582C8CAC583CADFE9DEE780BEC3
:0104050000F6
:00000001FF
