:10021E003F065B4F666D7D077F6F777C395E797128
:06022E00FEFDFBF7EFDF0F
:0C000E0002104CD0020A00000212000098
:1001F700758911E510FFF58DAE118E8B8F8C8E8A68
:10020700D2AFD2ABD2A9D28ED28CAD0FAC0EAF0D7E
:07021700AE0C12017580F32B
:03001B000201A639
:1001A600C0E0C0D0E510F58D85118B050BE50B7011
:1001B60002050AC39404E50A94004008750A00750E
:0901C6000B00B290D0D0D0E03261
:03000B000200AA46
:1000AA00C0E0C0F0C0D075D000C000C004C005C018
:1000BA0006C007E510F58C85118A0513E513700251
:1000CA000512C39414E5129400403A751200751390
:1000DA00000509E50970020508943CE5089400400A
:1000EA0006750800750900AE08AF097C007D0A1282
:1000FA0001208E0C8F0DAE08AF097C007D0A12011B
:10010A00208C0E8D0FD007D006D005D004D000D099
:06011A00D0D0F0D0E0326D
:100175008C148D15D2A6EF90021E93F580C2A6753C
:1001850080FFD2A790022E1201CFD2A6E5159002CC
:100195001E93F580C2A67580FFD2A790022F02019B
:0101A500CF8A
:0A01CF00E493F580C2A77F057E00CF
:1001D900D3EF9400EE940040147D6E7C00ED1D7009
:0D01E900011CED4C70F7EF1F70E61E80E367
:0101F60022E6
:0300000002001EDD
:0C001E00787FE4F6D8FD758115020065BE
:10012000BC000BBE0029EF8DF084FFADF022E4CCC3
:10013000F875F008EF2FFFEE33FEEC33FCEE9DEC8C
:10014000984005FCEE9DFE0FD5F0E9E4CEFD22EDD2
:10015000F8F5F0EE8420D21CFEADF075F008EF2F1C
:10016000FFED33FD4007985006D5F0F222C398FD0D
:050170000FD5F0EA22AA
:10002A000201F7E493A3F8E493A34003F68001F2F4
:10003A0008DFF48029E493A3F85407240CC8C333D7
:10004A00C4540F4420C8834004F456800146F6DFA6
:10005A00E4800B010204081020408090000EE47E28
:10006A00019360BCA3FF543F30E509541FFEE4939B
:10007A00A360010ECF54C025E060A840B8E493A362
:10008A00FAE493A3F8E493A3C8C582C8CAC583CA8D
:10009A00F0A3C8C582C8CAC583CADFE9DEE780BE45
:01001A0000E5
:00000001FF
