:10014C00204425C8F4D5E2D2BBCAF8B5F5B5C60033
:10015C0000000000C7E3D0BACFC2C0B4000000005A
:10016C000000000000BBF2D5DFCED2000000000082
:10017C00000000000000D2D1B2BBBBE1B4E6D4DA7F
:0D018C0000000000000000042120200200FF
:10008F001201F0750F007510007511217B007A00B9
:10009F0079581200F4E4F508F509AF09E4FD1201EF
:1000AF009AE4F50AF50BE50975F011A42425250B43
:1000BF00F8E6FF6016C2001202387F327E0012028D
:1000CF0018050BE50B70DF050A80DB0509E50970E4
:1000DF00020508C39404E508940040BE7FE87E0340
:0500EF0012021880FE62
:1001F000C2A6C2A7D2B7D2007F30120238120214B0
:10020000D2007F0F120238120214D2007F011202B4
:04021000380202149A
:10023800300004C2B58002D2B5C2B6C2B48F8012F3
:0A0248000214D2B4120214C2B42250
:10019A00EF14600F14601114601324037012750CAD
:1001AA0080800D750C908008750C888003750C98FA
:0B01BA00ED250CF50CD200FF0202380E
:040214007F057E00E4
:10021800E4FDFCC3ED9FEC9E5015E4FBFA0BBB001C
:0F022800010AEB646E4A70F50DBD00010C80E415
:0102370022A4
:03000000020003F8
:0C000300787FE4F6D8FD75816802004AA1
:1000F4008B0C8A0D890E8B128A138914AB0C050E96
:10010400E50EAA0D7002050D14F91201C570ED7407
:10011400FF250EF50E74FF350DF50DAB0F0511E53A
:1001240011AA107002051014F91201C5FFAB0C05D9
:100134000EE50EAA0D7002050D14F9EF1201DE7022
:08014400DAAB12AA13A9142280
:10000F0002008FE493A3F8E493A34003F68001F278
:10001F0008DFF48029E493A3F85407240CC8C333F2
:10002F00C4540F4420C8834004F456800146F6DFC1
:10003F00E4800B010204081020408090014CE47E04
:10004F00019360BCA3FF543F30E509541FFEE493B6
:10005F00A360010ECF54C025E060A840B8E493A37D
:10006F00FAE493A3F8E493A3C8C582C8CAC583CAA8
:10007F00F0A3C8C582C8CAC583CADFE9DEE780BE60
:010199000065
:1001C500BB010689828A83E0225002E722BBFE0238
:0901D500E32289828A83E493226B
:1001DE00BB010689828A83F0225002F722BBFE0100
:0201EE00F322FA
:00000001FF
