:100102004845592C204920414D0057415443484904
:100112004E47003A29203A29203A29203A29203A02
:040122002920200070
:10000300120126D2007F801200E4E4F50AF50BE525
:100013000B90010293FF6016C2001200E47F2C7E56
:1000230001120148050BE50B70E5050A80E1D200DA
:100033007FC01200E4E4F50AF50BE50B90010C1206
:1000430000E07F2C7E01120148050BE50B700205D1
:100053000AC39408E50A940040E075080075090195
:10006300C374909509FFD2001200E4E4F50AF50B7E
:10007300C3E50B9509E50A950850141200DB7F01CF
:100083007E00120148050BE50B70E5050A80E1C30C
:1000930074D09509FFD2001200E4E4F50AF50BC30E
:1000A300E50B9509E50A950850141200DB7F017EE4
:1000B30000120148050BE50B70E5050A80E17FC8D6
:1000C3007E001201480509E50970020508C3941171
:0800D300E5089400408A80FE5C
:10012600C2A6C2A7C2B4D2007F381200E4D2007FB2
:100136000F1200E4D2007F061200E4D2007F010213
:0201460000E4D3
:0900DB00E50B90011593FFC20032
:1000E400300004C2B58002D2B58F807F057E001235
:0E00F4000148D2B47F057E00120148C2B4223A
:10014800E4FDFCC3ED9FEC9E5015E4FBFA0BBB00ED
:0F015800010AEB646E4A70F50DBD00010C80E4E6
:010167002275
:0300000002016892
:0C016800787FE4F6D8FD758120020003CA
:00000001FF
