:100124004845592C204920414D00574154434849E2
:100134004E47003A29203A29203A29203A29203AE0
:02014400290090
:10000300120102D2007F80120146E4F508F509E5EA
:100013000990012493FF601DC2001201467F2C7ECC
:10002300011200E2D2007F101201460509E50970B2
:10003300DE050880DAD2007FC0120146E4F508F538
:1000430009E50990012E93FFC2001201467F2C7E21
:10005300011200E20509E50970020508C39408E5E9
:1000630008940040DCD2007F90120146E4F508F5C5
:1000730009E50990013793FF6012C200120146128D
:1000830000DE0509E50970E9050880E5D2007FD0A7
:10009300120146E4F508F509E50990013793FF607D
:1000A30012C2001201461200DE0509E50970E905D6
:1000B3000880E5E4F508F509D2007F181201467FB0
:1000C3002C7E011200E20509E50970020508C394BC
:0900D30010E508940040E180FEF4
:10010200C2A6C2A7C2B4D2007F38120146D2007F73
:100112000F120146D2007F06120146D2007F020270
:02012200014694
:10014600300004C2B58002D2B51200DCD2B412006F
:04015600DEC2B4222F
:0D015A00C2B51200DCD2B41200DEC2B42225
:0D016700D2B51200DCD2B41200DEC2B42208
:0600DC008F807F057E000D
:1000E200E4FDFCC3ED9FEC9E5015E4FBFA0BBB0054
:0F00F200010AEB646E4A70F50DBD00010C80E44D
:0101010022DB
:0300000002017486
:0C017400787FE4F6D8FD758120020003BE
:00000001FF
